Microchip MPLAB XC8 Compiler V2.05 ()

Linker command line:

-W-3 --edf=/opt/microchip/xc8/v2.05/pic/dat/en_msgs.txt -cs \
  -h+dist/default/debug/Terrariums.X.debug.sym \
  --cmf=dist/default/debug/Terrariums.X.debug.cmf -z -Q16F877 \
  -o/tmp/xcXDy0reC --defsym=__MPLAB_BUILD=1 \
  -Mdist/default/debug/Terrariums.X.debug.map -E1 -ver=XC8 --acfsm=1493 \
  -ASTACK=0110h-016Fh -pstack=STACK -ACODE=00h-07FFhx4 -ASTRCODE=00h-01FFFh \
  -ASTRING=00h-0FFhx32 -ACONST=00h-0FFhx32 -AENTRY=00h-0FFhx32 \
  -ACOMMON=070h-07Fh -ABANK0=020h-06Fh -ABANK1=0A0h-0EFh \
  -ABANK2=0110h-016Fh -ABANK3=0190h-01EFh \
  -ARAM=020h-06Fh,0A0h-0EFh,0110h-016Fh,0190h-01EFh \
  -AABS1=020h-07Fh,0A0h-0EFh,0110h-016Fh,0190h-01EFh -ASFR0=00h-01Fh \
  -ASFR1=080h-09Fh -ASFR2=0100h-010Fh -ASFR3=0180h-018Fh \
  -preset_vec=00h,intentry,init,end_init -ppowerup=CODE -pcinit=CODE \
  -pfunctab=ENTRY -ACONFIG=02007h-02007h -pconfig=CONFIG -DCONFIG=2 \
  -AIDLOC=02000h-02003h -pidloc=IDLOC -DIDLOC=2 -AEEDATA=00h-0FFh/02100h \
  -peeprom_data=EEDATA -DEEDATA=2 -DCODE=2 -DSTRCODE=2 -DSTRING=2 -DCONST=2 \
  -DENTRY=2 -k /tmp/xcX1q3BYj.o dist/default/debug/Terrariums.X.debug.o 

Object code version is 3.11

Machine type is 16F877



                Name                               Link     Load   Length Selector   Space Scale
/tmp/xcX1q3BYj.o
                end_init                              0        0        3        0       0
                config                             2007     2007        1     400E       0
dist/default/debug/Terrariums.X.debug.o
                cinit                               7F4      7F4        C      FE8       0
                text13                              2A0      2A0      23F      540       0
                text12                              DED      DED       95     1BDA       0
                text11                              C4F      C4F       5C     189E       0
                text10                              CAB      CAB       5C     1956       0
                text9                                 C        C        E       18       0
                text8                                FD       FD      1A3      1FA       0
                text7                               BFB      BFB       23     17F6       0
                text6                               4DF      4DF      315      9BE       0
                text5                               E82      E82       A3     1D04       0
                text4                                1A       1A       E3       34       0
                text3                               F25      F25       DB     1E4A       0
                text2                               D07      D07       6D     1A0E       0
                text1                               D74      D74       79     1AE8       0
                maintext                            C1E      C1E       31     183C       0
                cstackBANK0                          20       20       50       20       1
                cstackCOMMON                         70       70        E       70       1
                cstackBANK1                          AA       AA        2       A0       1
                bssBANK1                             A0       A0        6       A0       1
                nvBANK1                              A6       A6        4       A0       1
                strings                             800      800        A     1000       0

TOTAL           Name                               Link     Load   Length     Space
        CLASS   STACK          

        CLASS   CODE           
                end_init                              0        0        3         0
                cinit                               7F4      7F4        C         0
                text13                              2A0      2A0      23F         0
                text12                              DED      DED       95         0
                text11                              C4F      C4F       5C         0
                text10                              CAB      CAB       5C         0
                text9                                 C        C        E         0
                text8                                FD       FD      1A3         0
                text7                               BFB      BFB       23         0
                text6                               4DF      4DF      315         0
                text5                               E82      E82       A3         0
                text4                                1A       1A       E3         0
                text3                               F25      F25       DB         0
                text2                               D07      D07       6D         0
                text1                               D74      D74       79         0
                maintext                            C1E      C1E       31         0

        CLASS   STRCODE        

        CLASS   STRING         
                strings                             800      800        A         0

        CLASS   CONST          

        CLASS   ENTRY          

        CLASS   COMMON         
                cstackCOMMON                         70       70        E         1

        CLASS   BANK0          
                cstackBANK0                          20       20       50         1

        CLASS   BANK1          
                cstackBANK1                          AA       AA        2         1
                bssBANK1                             A0       A0        6         1
                nvBANK1                              A6       A6        4         1

        CLASS   BANK2          

        CLASS   BANK3          

        CLASS   RAM            

        CLASS   ABS1           
                abs_s1                               7E       7E        2         1

        CLASS   SFR0           

        CLASS   SFR1           

        CLASS   SFR2           

        CLASS   SFR3           

        CLASS   CONFIG         
                config                             2007     2007        1         0

        CLASS   IDLOC          

        CLASS   EEDATA         



SEGMENTS        Name                           Load    Length   Top    Selector   Space  Class     Delta

                reset_vec                      000000  000003  000003         0       0  CODE        2
                text9                          00000C  00000E  00001A        18       0  CODE        2
                cstackBANK0                    000020  000050  000070        20       1  BANK0       1
                text4                          00001A  0000E3  0000FD        34       0  CODE        2
                cstackCOMMON                   000070  00000E  00007E        70       1  COMMON      1
                bssBANK1                       0000A0  00000C  0000AC        A0       1  BANK1       1
                text8                          0000FD  0001A3  0002A0       1FA       0  CODE        2
                text13                         0002A0  00023F  0004DF       540       0  CODE        2
                text6                          0004DF  000315  0007F4       9BE       0  CODE        2
                cinit                          0007F4  00000C  000800       FE8       0  CODE        2
                strings                        000800  00000A  00080A      1000       0  STRING      2
                text7                          000BFB  000023  000C1E      17F6       0  CODE        2
                maintext                       000C1E  000031  000C4F      183C       0  CODE        2
                text11                         000C4F  00005C  000CAB      189E       0  CODE        2
                text10                         000CAB  00005C  000D07      1956       0  CODE        2
                text2                          000D07  00006D  000D74      1A0E       0  CODE        2
                text1                          000D74  000079  000DED      1AE8       0  CODE        2
                text12                         000DED  000095  000E82      1BDA       0  CODE        2
                text5                          000E82  0000A3  000F25      1D04       0  CODE        2
                text3                          000F25  0000DB  001000      1E4A       0  CODE        2
                config                         002007  000001  002008      400E       0  CONFIG      2


UNUSED ADDRESS RANGES

        Name                Unused          Largest block    Delta
        BANK1            00AC-00EF             44           1
        BANK2            0110-016F             60           1
        BANK3            0190-01EF             60           1
        CODE             0003-000B              9           2
                         080A-0BFA            3F1
                         1000-1FFF            800
        CONST            0003-000B              9           2
                         080A-0BFA            100
                         1000-1FFF            100
        EEDATA           2100-21FF            100           2
        ENTRY            0003-000B              9           2
                         080A-0BFA            100
                         1000-1FFF            100
        IDLOC            2000-2003              4           2
        RAM              00AC-00EF             44           1
                         0110-016F             60
                         0190-01EF             60
        SFR0             0000-001F             20           1
        SFR1             0080-009F             20           1
        SFR2             0100-010F             10           1
        SFR3             0180-018F             10           1
        STACK            0110-016F             60           1
        STRCODE          0003-000B              9           2
                         080A-0BFA            3F1
                         1000-1FFF           1000
        STRING           0003-000B              9           2
                         080A-0BFA            100
                         1000-1FFF            100

                                  Symbol Table

?__Umul8_16                           cstackCOMMON 0070
?___fladd                             cstackCOMMON 0070
?___fldiv                             cstackBANK0  0042
?___flmul                             cstackBANK0  0028
?___fltol                             cstackBANK0  005C
?___xxtofl                            cstackCOMMON 0070
?_getTemperature                      cstackBANK0  005C
_ADCON0                               (abs)        001F
_ADCON0bits                           (abs)        001F
_ADCON1                               (abs)        009F
_ADRESH                               (abs)        001E
_ADRESL                               (abs)        009E
_RC0                                  (abs)        0038
_RC1                                  (abs)        0039
_RC3                                  (abs)        003B
_RC4                                  (abs)        003C
_RC5                                  (abs)        003D
_RC6                                  (abs)        003E
_RC7                                  (abs)        003F
_RD0                                  (abs)        0040
_RD1                                  (abs)        0041
_TRISA                                (abs)        0085
_TRISC                                (abs)        0087
_TRISD                                (abs)        0088
__CFG_BOREN$ON                        (abs)        0000
__CFG_CP$OFF                          (abs)        0000
__CFG_CPD$OFF                         (abs)        0000
__CFG_FOSC$HS                         (abs)        0000
__CFG_LVP$OFF                         (abs)        0000
__CFG_PWRTE$OFF                       (abs)        0000
__CFG_WDTE$OFF                        (abs)        0000
__CFG_WRT$ON                          (abs)        0000
__Habs1                               abs1         0000
__Hbank0                              bank0        0000
__Hbank1                              bank1        0000
__Hbank2                              bank2        0000
__Hbank3                              bank3        0000
__HbssBANK1                           bssBANK1     0000
__Hcinit                              cinit        0800
__Hclrtext                            clrtext      0000
__Hcode                               code         0000
__Hcommon                             common       0000
__Hconfig                             config       2008
__HcstackBANK0                        cstackBANK0  0000
__HcstackBANK1                        cstackBANK1  0000
__HcstackCOMMON                       cstackCOMMON 0000
__Heeprom_data                        eeprom_data  0000
__Hend_init                           end_init     0003
__Hfunctab                            functab      0000
__Hidloc                              idloc        0000
__Hinit                               init         0000
__Hintentry                           intentry     0000
__Hmaintext                           maintext     0000
__HnvBANK1                            nvBANK1      0000
__Hpowerup                            powerup      0000
__Hram                                ram          0000
__Hreset_vec                          reset_vec    0000
__Hsfr0                               sfr0         0000
__Hsfr1                               sfr1         0000
__Hsfr2                               sfr2         0000
__Hsfr3                               sfr3         0000
__Hspace_0                            (abs)        2008
__Hspace_1                            (abs)        00AC
__Hspace_2                            (abs)        0000
__Hspace_3                            (abs)        0000
__Hstack                              stack        0000
__Hstrings                            strings      0000
__Htext                               text         0000
__Labs1                               abs1         0000
__Lbank0                              bank0        0000
__Lbank1                              bank1        0000
__Lbank2                              bank2        0000
__Lbank3                              bank3        0000
__LbssBANK1                           bssBANK1     0000
__Lcinit                              cinit        07F4
__Lclrtext                            clrtext      0000
__Lcode                               code         0000
__Lcommon                             common       0000
__Lconfig                             config       2007
__LcstackBANK0                        cstackBANK0  0000
__LcstackBANK1                        cstackBANK1  0000
__LcstackCOMMON                       cstackCOMMON 0000
__Leeprom_data                        eeprom_data  0000
__Lend_init                           end_init     0000
__Lfunctab                            functab      0000
__Lidloc                              idloc        0000
__Linit                               init         0000
__Lintentry                           intentry     0000
__Lmaintext                           maintext     0000
__LnvBANK1                            nvBANK1      0000
__Lpowerup                            powerup      0000
__Lram                                ram          0000
__Lreset_vec                          reset_vec    0000
__Lsfr0                               sfr0         0000
__Lsfr1                               sfr1         0000
__Lsfr2                               sfr2         0000
__Lsfr3                               sfr3         0000
__Lspace_0                            (abs)        0000
__Lspace_1                            (abs)        0000
__Lspace_2                            (abs)        0000
__Lspace_3                            (abs)        0000
__Lstack                              stack        0000
__Lstrings                            strings      0000
__Ltext                               text         0000
__S0                                  (abs)        2008
__S1                                  (abs)        00AC
__S2                                  (abs)        0000
__S3                                  (abs)        0000
__Umul8_16                            text7        0BFB
__Umul8_16@multiplicand               cstackCOMMON 0070
__Umul8_16@multiplier                 cstackCOMMON 0078
__Umul8_16@product                    cstackCOMMON 0074
__Umul8_16@word_mpld                  cstackCOMMON 0076
___fladd                              text13       02A0
___fladd@a                            cstackCOMMON 0074
___fladd@aexp                         cstackCOMMON 0079
___fladd@b                            cstackCOMMON 0070
___fladd@bexp                         cstackCOMMON 007A
___fladd@grs                          cstackCOMMON 007B
___fladd@signs                        cstackCOMMON 0078
___fldiv                              text8        00FD
___fldiv@a                            cstackBANK0  0042
___fldiv@aexp                         cstackBANK0  005B
___fldiv@b                            cstackBANK0  0046
___fldiv@bexp                         cstackBANK0  005A
___fldiv@grs                          cstackBANK0  0056
___fldiv@new_exp                      cstackBANK0  0054
___fldiv@rem                          cstackBANK0  004F
___fldiv@sign                         cstackBANK0  0053
___flge                               text12       0DED
___flge@ff1                           cstackBANK0  0028
___flge@ff2                           cstackBANK0  002C
___flmul                              text6        04DF
___flmul@a                            cstackBANK0  002C
___flmul@aexp                         cstackBANK0  003A
___flmul@b                            cstackBANK0  0028
___flmul@bexp                         cstackBANK0  003B
___flmul@grs                          cstackBANK0  0036
___flmul@prod                         cstackBANK0  003C
___flmul@sign                         cstackBANK0  0035
___flmul@temp                         cstackBANK0  0040
___fltol                              text2        0D07
___fltol@exp1                         cstackBANK0  0066
___fltol@f1                           cstackBANK0  005C
___fltol@sign1                        cstackBANK0  0065
___int_sp                             stack        0000
___latbits                            (abs)        0002
___sp                                 stack        0000
___stackhi                            (abs)        0000
___stacklo                            (abs)        0000
___xxtofl                             text5        0E82
___xxtofl@arg                         cstackCOMMON 007A
___xxtofl@exp                         cstackCOMMON 0079
___xxtofl@sign                        cstackCOMMON 0078
___xxtofl@val                         cstackCOMMON 0070
__end_of_TEMP_MAX                     strings      0808
__end_of_TEMP_MIN                     strings      080A
__end_of__Umul8_16                    text7        0C1E
__end_of___fladd                      text13       04DF
__end_of___fldiv                      text8        02A0
__end_of___flge                       text12       0E82
__end_of___flmul                      text6        07F4
__end_of___fltol                      text2        0D74
__end_of___xxtofl                     text5        0F25
__end_of__initialization              cinit        07FC
__end_of__stringtab                   strings      0806
__end_of_decrementTemperature         text11       0CAB
__end_of_getTemperature               text4        00FD
__end_of_incrementOrDecrement         text9        001A
__end_of_incrementTemperature         text10       0D07
__end_of_main                         maintext     0C4F
__end_of_regulateTemperature          text3        1000
__end_of_turnOnLed                    text1        0DED
__initialization                      cinit        07F4
__pbssBANK1                           bssBANK1     00A0
__pcstackBANK0                        cstackBANK0  0020
__pcstackBANK1                        cstackBANK1  00AA
__pcstackCOMMON                       cstackCOMMON 0070
__pmaintext                           maintext     0C1E
__pnvBANK1                            nvBANK1      00A6
__pstrings                            strings      0800
__ptext1                              text1        0D74
__ptext10                             text10       0CAB
__ptext11                             text11       0C4F
__ptext12                             text12       0DED
__ptext13                             text13       02A0
__ptext2                              text2        0D07
__ptext3                              text3        0F25
__ptext4                              text4        001A
__ptext5                              text5        0E82
__ptext6                              text6        04DF
__ptext7                              text7        0BFB
__ptext8                              text8        00FD
__ptext9                              text9        000C
__size_of__Umul8_16                   (abs)        0000
__size_of___fladd                     (abs)        0000
__size_of___fldiv                     (abs)        0000
__size_of___flge                      (abs)        0000
__size_of___flmul                     (abs)        0000
__size_of___fltol                     (abs)        0000
__size_of___xxtofl                    (abs)        0000
__size_of_decrementTemperature        (abs)        0000
__size_of_getTemperature              (abs)        0000
__size_of_incrementOrDecrement        (abs)        0000
__size_of_incrementTemperature        (abs)        0000
__size_of_main                        (abs)        0000
__size_of_regulateTemperature         (abs)        0000
__size_of_turnOnLed                   (abs)        0000
__stringbase                          strings      0805
__stringtab                           strings      0800
_decrementTemperature                 text11       0C4F
_getTemperature                       text4        001A
_incrementOrDecrement                 text9        000C
_incrementTemperature                 text10       0CAB
_main                                 maintext     0C1E
_regulateTemperature                  text3        0F25
_temperature                          nvBANK1      00A6
_tension                              bssBANK1     00A0
_turnOnLed                            text1        0D74
btemp                                 (abs)        007E
decrementTemperature@temp_temperature cstackBANK0  0034
end_of_initialization                 cinit        07FC
getTemperature@ValeurADC              cstackBANK0  0068
getTemperature@temp_degres            cstackBANK0  0064
incrementTemperature@temp_temperature cstackBANK0  0034
intlevel0                             functab      0000
intlevel1                             functab      0000
intlevel2                             functab      0000
intlevel3                             functab      0000
intlevel4                             functab      0000
intlevel5                             functab      0000
regulateTemperature@temp_degres       cstackBANK0  006C
reset_vec                             reset_vec    0000
start                                 init         0000
start_initialization                  cinit        07F4
turnOnLed@temperature_level           cstackBANK0  0067
wtemp0                                (abs)        007E


FUNCTION INFORMATION:

 *************** function _main *****************
 Defined at:
		line 118 in file "main.c"
 Parameters:    Size  Location     Type
		None
 Auto vars:     Size  Location     Type
		None
 Return value:  Size  Location     Type
                  1    wreg      void 
 Registers used:
		wreg, fsr0l, fsr0h, status,2, status,0, btemp+1, pclath, cstack
 Tracked objects:
		On entry : 
		On exit  : 
		Unchanged: 
 Data sizes:     COMMON   BANK0   BANK1   BANK3   BANK2
      Params:         0       0       0       0       0
      Locals:         0       0       0       0       0
      Temps:          0       0       2       0       0
      Totals:         0       0       2       0       0
Total ram usage:        2 bytes
 Hardware stack levels required when called:    4
 This function calls:
		_incrementOrDecrement
		_regulateTemperature
		_turnOnLed
 This function is called by:
		Startup code after reset
 This function uses a non-reentrant model


 *************** function _turnOnLed *****************
 Defined at:
		line 77 in file "main.c"
 Parameters:    Size  Location     Type
		None
 Auto vars:     Size  Location     Type
  temperature_    2   71[BANK0 ] int 
 Return value:  Size  Location     Type
                  1    wreg      void 
 Registers used:
		wreg, fsr0l, fsr0h, status,2, status,0, btemp+1, pclath, cstack
 Tracked objects:
		On entry : 
		On exit  : 
		Unchanged: 
 Data sizes:     COMMON   BANK0   BANK1   BANK3   BANK2
      Params:         0       0       0       0       0
      Locals:         0       2       0       0       0
      Temps:          0       0       0       0       0
      Totals:         0       2       0       0       0
Total ram usage:        2 bytes
 Hardware stack levels used:    1
 Hardware stack levels required when called:    1
 This function calls:
		___fladd
		___fldiv
		___fltol
 This function is called by:
		_main
 This function uses a non-reentrant model


 *************** function ___fltol *****************
 Defined at:
		line 43 in file "/opt/microchip/xc8/v2.05/pic/sources/c90/common/fltol.c"
 Parameters:    Size  Location     Type
  f1              4   60[BANK0 ] void 
 Auto vars:     Size  Location     Type
  exp1            1   70[BANK0 ] unsigned char 
  sign1           1   69[BANK0 ] unsigned char 
 Return value:  Size  Location     Type
                  4   60[BANK0 ] long 
 Registers used:
		wreg, status,2, status,0
 Tracked objects:
		On entry : 
		On exit  : 
		Unchanged: 
 Data sizes:     COMMON   BANK0   BANK1   BANK3   BANK2
      Params:         0       4       0       0       0
      Locals:         0       2       0       0       0
      Temps:          0       5       0       0       0
      Totals:         0      11       0       0       0
Total ram usage:       11 bytes
 Hardware stack levels used:    1
 This function calls:
		Nothing
 This function is called by:
		_turnOnLed
 This function uses a non-reentrant model


 *************** function _regulateTemperature *****************
 Defined at:
		line 59 in file "main.c"
 Parameters:    Size  Location     Type
		None
 Auto vars:     Size  Location     Type
  temp_degres     4   76[BANK0 ] long 
 Return value:  Size  Location     Type
                  1    wreg      void 
 Registers used:
		wreg, status,2, status,0, btemp+1, pclath, cstack
 Tracked objects:
		On entry : 
		On exit  : 
		Unchanged: 
 Data sizes:     COMMON   BANK0   BANK1   BANK3   BANK2
      Params:         0       0       0       0       0
      Locals:         0       4       0       0       0
      Temps:          0       0       0       0       0
      Totals:         0       4       0       0       0
Total ram usage:        4 bytes
 Hardware stack levels used:    1
 Hardware stack levels required when called:    3
 This function calls:
		___fladd
		___flge
		_getTemperature
 This function is called by:
		_main
 This function uses a non-reentrant model


 *************** function _getTemperature *****************
 Defined at:
		line 36 in file "main.c"
 Parameters:    Size  Location     Type
		None
 Auto vars:     Size  Location     Type
  ValeurADC       4   72[BANK0 ] unsigned long 
  temp_degres     4   68[BANK0 ] unsigned long 
 Return value:  Size  Location     Type
                  4   60[BANK0 ] unsigned long 
 Registers used:
		wreg, status,2, status,0, btemp+1, pclath, cstack
 Tracked objects:
		On entry : 
		On exit  : 
		Unchanged: 
 Data sizes:     COMMON   BANK0   BANK1   BANK3   BANK2
      Params:         0       4       0       0       0
      Locals:         0       8       0       0       0
      Temps:          0       4       0       0       0
      Totals:         0      16       0       0       0
Total ram usage:       16 bytes
 Hardware stack levels used:    1
 Hardware stack levels required when called:    2
 This function calls:
		___fladd
		___fldiv
		___flmul
		___xxtofl
 This function is called by:
		_regulateTemperature
 This function uses a non-reentrant model


 *************** function ___xxtofl *****************
 Defined at:
		line 10 in file "/opt/microchip/xc8/v2.05/pic/sources/c90/common/xxtofl.c"
 Parameters:    Size  Location     Type
  sign            1    wreg     unsigned char 
  val             4    0[COMMON] long 
 Auto vars:     Size  Location     Type
  sign            1    8[COMMON] unsigned char 
  arg             4   10[COMMON] unsigned long 
  exp             1    9[COMMON] unsigned char 
 Return value:  Size  Location     Type
                  4    0[COMMON] unsigned char 
 Registers used:
		wreg, status,2, status,0
 Tracked objects:
		On entry : 
		On exit  : 
		Unchanged: 
 Data sizes:     COMMON   BANK0   BANK1   BANK3   BANK2
      Params:         4       0       0       0       0
      Locals:         6       0       0       0       0
      Temps:          4       0       0       0       0
      Totals:        14       0       0       0       0
Total ram usage:       14 bytes
 Hardware stack levels used:    1
 This function calls:
		Nothing
 This function is called by:
		_getTemperature
 This function uses a non-reentrant model


 *************** function ___flmul *****************
 Defined at:
		line 8 in file "/opt/microchip/xc8/v2.05/pic/sources/c90/common/sprcmul.c"
 Parameters:    Size  Location     Type
  b               4    8[BANK0 ] unsigned char 
  a               4   12[BANK0 ] unsigned char 
 Auto vars:     Size  Location     Type
  prod            4   28[BANK0 ] struct .
  grs             4   22[BANK0 ] unsigned long 
  temp            2   32[BANK0 ] struct .
  bexp            1   27[BANK0 ] unsigned char 
  aexp            1   26[BANK0 ] unsigned char 
  sign            1   21[BANK0 ] unsigned char 
 Return value:  Size  Location     Type
                  4    8[BANK0 ] unsigned char 
 Registers used:
		wreg, status,2, status,0, btemp+1, pclath, cstack
 Tracked objects:
		On entry : 
		On exit  : 
		Unchanged: 
 Data sizes:     COMMON   BANK0   BANK1   BANK3   BANK2
      Params:         0       8       0       0       0
      Locals:         0      13       0       0       0
      Temps:          0       5       0       0       0
      Totals:         0      26       0       0       0
Total ram usage:       26 bytes
 Hardware stack levels used:    1
 Hardware stack levels required when called:    1
 This function calls:
		__Umul8_16
 This function is called by:
		_getTemperature
 This function uses a non-reentrant model


 *************** function __Umul8_16 *****************
 Defined at:
		line 4 in file "/opt/microchip/xc8/v2.05/pic/sources/c90/common/Umul8_16.c"
 Parameters:    Size  Location     Type
  multiplier      1    wreg     unsigned char 
  multiplicand    1    0[COMMON] unsigned char 
 Auto vars:     Size  Location     Type
  multiplier      1    8[COMMON] unsigned char 
  word_mpld       2    6[COMMON] unsigned int 
  product         2    4[COMMON] unsigned int 
 Return value:  Size  Location     Type
                  2    0[COMMON] unsigned int 
 Registers used:
		wreg, status,2, status,0
 Tracked objects:
		On entry : 
		On exit  : 
		Unchanged: 
 Data sizes:     COMMON   BANK0   BANK1   BANK3   BANK2
      Params:         2       0       0       0       0
      Locals:         5       0       0       0       0
      Temps:          2       0       0       0       0
      Totals:         9       0       0       0       0
Total ram usage:        9 bytes
 Hardware stack levels used:    1
 This function calls:
		Nothing
 This function is called by:
		___flmul
 This function uses a non-reentrant model


 *************** function ___fldiv *****************
 Defined at:
		line 8 in file "/opt/microchip/xc8/v2.05/pic/sources/c90/common/sprcdiv.c"
 Parameters:    Size  Location     Type
  a               4   34[BANK0 ] unsigned int 
  b               4   38[BANK0 ] unsigned int 
 Auto vars:     Size  Location     Type
  grs             4   54[BANK0 ] unsigned long 
  rem             4   47[BANK0 ] unsigned long 
  new_exp         2   52[BANK0 ] int 
  aexp            1   59[BANK0 ] unsigned char 
  bexp            1   58[BANK0 ] unsigned char 
  sign            1   51[BANK0 ] unsigned char 
 Return value:  Size  Location     Type
                  4   34[BANK0 ] unsigned char 
 Registers used:
		wreg, status,2, status,0, btemp+1
 Tracked objects:
		On entry : 
		On exit  : 
		Unchanged: 
 Data sizes:     COMMON   BANK0   BANK1   BANK3   BANK2
      Params:         0       8       0       0       0
      Locals:         0      13       0       0       0
      Temps:          0       5       0       0       0
      Totals:         0      26       0       0       0
Total ram usage:       26 bytes
 Hardware stack levels used:    1
 This function calls:
		Nothing
 This function is called by:
		_getTemperature
		_turnOnLed
 This function uses a non-reentrant model


 *************** function _incrementOrDecrement *****************
 Defined at:
		line 50 in file "main.c"
 Parameters:    Size  Location     Type
		None
 Auto vars:     Size  Location     Type
  temp_temp       4    0        unsigned char 
 Return value:  Size  Location     Type
                  1    wreg      void 
 Registers used:
		wreg, status,2, status,0, btemp+1, pclath, cstack
 Tracked objects:
		On entry : 
		On exit  : 
		Unchanged: 
 Data sizes:     COMMON   BANK0   BANK1   BANK3   BANK2
      Params:         0       0       0       0       0
      Locals:         0       4       0       0       0
      Temps:          0       0       0       0       0
      Totals:         0       4       0       0       0
Total ram usage:        4 bytes
 Hardware stack levels used:    1
 Hardware stack levels required when called:    2
 This function calls:
		_decrementTemperature
		_incrementTemperature
 This function is called by:
		_main
 This function uses a non-reentrant model


 *************** function _incrementTemperature *****************
 Defined at:
		line 26 in file "main.c"
 Parameters:    Size  Location     Type
		None
 Auto vars:     Size  Location     Type
  temp_tempera    4   20[BANK0 ] void 
 Return value:  Size  Location     Type
                  1    wreg      void 
 Registers used:
		wreg, status,2, status,0, btemp+1, pclath, cstack
 Tracked objects:
		On entry : 
		On exit  : 
		Unchanged: 
 Data sizes:     COMMON   BANK0   BANK1   BANK3   BANK2
      Params:         0       0       0       0       0
      Locals:         0       4       0       0       0
      Temps:          0       0       0       0       0
      Totals:         0       4       0       0       0
Total ram usage:        4 bytes
 Hardware stack levels used:    1
 Hardware stack levels required when called:    1
 This function calls:
		___fladd
		___flge
 This function is called by:
		_incrementOrDecrement
 This function uses a non-reentrant model


 *************** function _decrementTemperature *****************
 Defined at:
		line 31 in file "main.c"
 Parameters:    Size  Location     Type
		None
 Auto vars:     Size  Location     Type
  temp_tempera    4   20[BANK0 ] void 
 Return value:  Size  Location     Type
                  1    wreg      void 
 Registers used:
		wreg, status,2, status,0, btemp+1, pclath, cstack
 Tracked objects:
		On entry : 
		On exit  : 
		Unchanged: 
 Data sizes:     COMMON   BANK0   BANK1   BANK3   BANK2
      Params:         0       0       0       0       0
      Locals:         0       4       0       0       0
      Temps:          0       0       0       0       0
      Totals:         0       4       0       0       0
Total ram usage:        4 bytes
 Hardware stack levels used:    1
 Hardware stack levels required when called:    1
 This function calls:
		___fladd
		___flge
 This function is called by:
		_incrementOrDecrement
 This function uses a non-reentrant model


 *************** function ___flge *****************
 Defined at:
		line 4 in file "/opt/microchip/xc8/v2.05/pic/sources/c90/common/flge.c"
 Parameters:    Size  Location     Type
  ff1             4    8[BANK0 ] void 
  ff2             4   12[BANK0 ] void 
 Auto vars:     Size  Location     Type
		None
 Return value:  Size  Location     Type
		None               void
 Registers used:
		wreg, status,2, status,0
 Tracked objects:
		On entry : 
		On exit  : 
		Unchanged: 
 Data sizes:     COMMON   BANK0   BANK1   BANK3   BANK2
      Params:         0       8       0       0       0
      Locals:         0       0       0       0       0
      Temps:          0       4       0       0       0
      Totals:         0      12       0       0       0
Total ram usage:       12 bytes
 Hardware stack levels used:    1
 This function calls:
		Nothing
 This function is called by:
		_incrementTemperature
		_decrementTemperature
		_regulateTemperature
 This function uses a non-reentrant model


 *************** function ___fladd *****************
 Defined at:
		line 10 in file "/opt/microchip/xc8/v2.05/pic/sources/c90/common/sprcadd.c"
 Parameters:    Size  Location     Type
  b               4    0[COMMON] void 
  a               4    4[COMMON] void 
 Auto vars:     Size  Location     Type
  grs             1   11[COMMON] unsigned char 
  bexp            1   10[COMMON] unsigned char 
  aexp            1    9[COMMON] unsigned char 
  signs           1    8[COMMON] unsigned char 
 Return value:  Size  Location     Type
                  4    0[COMMON] unsigned char 
 Registers used:
		wreg, status,2, status,0, btemp+1
 Tracked objects:
		On entry : 
		On exit  : 
		Unchanged: 
 Data sizes:     COMMON   BANK0   BANK1   BANK3   BANK2
      Params:         8       0       0       0       0
      Locals:         4       0       0       0       0
      Temps:          0       8       0       0       0
      Totals:        12       8       0       0       0
Total ram usage:       20 bytes
 Hardware stack levels used:    1
 This function calls:
		Nothing
 This function is called by:
		_incrementTemperature
		_decrementTemperature
		_getTemperature
		_regulateTemperature
		_turnOnLed
 This function uses a non-reentrant model



MODULE INFORMATION

Module		Function		Class		Link	Load	Size
/opt/microchip/xc8/v2.05/pic/sources/c90/common/flge.c
		___flge        		CODE           	0DED	0000	150

/opt/microchip/xc8/v2.05/pic/sources/c90/common/flge.c estimated size: 150

/opt/microchip/xc8/v2.05/pic/sources/c90/common/xxtofl.c
		___xxtofl      		CODE           	0E82	0000	164

/opt/microchip/xc8/v2.05/pic/sources/c90/common/xxtofl.c estimated size: 164

/opt/microchip/xc8/v2.05/pic/sources/c90/common/sprcmul.c
		___flmul       		CODE           	04DF	0000	790

/opt/microchip/xc8/v2.05/pic/sources/c90/common/sprcmul.c estimated size: 790

/opt/microchip/xc8/v2.05/pic/sources/c90/common/sprcdiv.c
		___fldiv       		CODE           	00FD	0000	420

/opt/microchip/xc8/v2.05/pic/sources/c90/common/sprcdiv.c estimated size: 420

/opt/microchip/xc8/v2.05/pic/sources/c90/common/sprcadd.c
		___fladd       		CODE           	02A0	0000	576

/opt/microchip/xc8/v2.05/pic/sources/c90/common/sprcadd.c estimated size: 576

/opt/microchip/xc8/v2.05/pic/sources/c90/common/Umul8_16.c
		__Umul8_16     		CODE           	0BFB	0000	36

/opt/microchip/xc8/v2.05/pic/sources/c90/common/Umul8_16.c estimated size: 36

shared
		__stringtab    		STRING         	0800	0000	7
		_TEMP_MAX      		STRING         	0000	0000	0
		__initialization		CODE           	07F4	0000	9
		_TEMP_MIN      		STRING         	0000	0000	0

shared estimated size: 16

/opt/microchip/xc8/v2.05/pic/sources/c90/common/fltol.c
		___fltol       		CODE           	0D07	0000	110

/opt/microchip/xc8/v2.05/pic/sources/c90/common/fltol.c estimated size: 110

main.c
		_incrementOrDecrement		CODE           	000C	0000	15
		_decrementTemperature		CODE           	0C4F	0000	93
		_main          		CODE           	0C1E	0000	50
		_incrementTemperature		CODE           	0CAB	0000	93
		_getTemperature		CODE           	001A	0000	228
		_turnOnLed     		CODE           	0D74	0000	122
		_regulateTemperature		CODE           	0F25	0000	220

main.c estimated size: 821

